:040000000C944B0011
:04002C000C94160515
:040048000C948C0385
:140054000000000000000000000000010074696D65636861BC
:140068006E676500757267656E637973746F700075726765D4
:14007C006E637973746172740079656C6C6F77007265640021
:14009000677265656E00CFE5D4E0CDBFDEBFCE51D0400AEA97
:1400A40008830024E2EAF0E010E0EB3BF10711F00192FBCF91
:1400B8000083E4E5F0E0A0E6B0E010E000E00BBFE639F10751
:1400CC0021F0C89531960D92F9CF0E947C00FFCF8FEF8ABBD5
:1400E00022242BBA87BB88BB87EE84BB25BA82E081BB84E0C7
:1400F40082BB08952197F0DF0E94F40387E0888320E100ED9E
:140108000E94F9030E943A030E9489030E940B050027112727
:14011C000E9441060093A40001E010E00E9441060093A500BD
:1401300002E010E00E9441065801A092A600789464C22090ED
:140144006B00222009F4FFC1DC9821E030E00CE010E00E943A
:140158002D038BB780628BBF47C020906C0030906A0032284E
:14016C0009F0A6C02090680033240091A5001127021913090C
:1401800047D25801950101E010E00E942D0320906800332451
:140194000091A50011270219130942D25801950102E010E0DD
:1401A8000E942D032090680033240091A5001127021913095D
:1401BC0029D25801950103E010E00E942D0320906800332431
:1401D0000091A50011270219130924D25801950104E010E0BD
:1401E4000E942D030E944C030E9455032090A50033244090CE
:1401F80068005524241435040CF0AFCF5BC020906C00309030
:14020C006A00322809F0DCC02090A60033240091A50011276A
:14022000020D131D20906800332402191309F0D15801950135
:1402340001E010E00E942D032090A60033240091A5001127F8
:14024800020D131D20906800332402191309E6D15801950117
:14025C0002E010E00E942D032090A60033240091A5001127CF
:14027000020D131D20906800332402191309C8D1580195010D
:1402840003E010E00E942D032090A60033240091A5001127A6
:14029800020D131D20906800332402191309BED158019501EF
:1402AC0004E010E00E942D030E944F030E945B03A09068000C
:1402C000C090A5002C2C33244A2C5524241435046CF4209016
:1402D400A60033244C2C5524420C531C2A2C33244214530411
:1402E8000CF08DCF6FC020906C0030906A00322809F007C11A
:1402FC002090A60033240091A5001127020D131D2090A40040
:140310003324020D131D2090680033240219130977D15801FC
:14032400950101E010E00E942D032090A60033240091A500A9
:140338001127020D131D2090A4003324020D131D2090680038
:14034C0033240219130968D15801950102E010E00E942D0343
:140360002090A60033240091A5001127020D131D2090A400DB
:140374003324020D131D2090680033240219130945D15801CA
:14038800950103E010E00E942D032090A60033240091A50043
:14039C001127020D131D2090A4003324020D131D20906800D4
:1403B00033240219130936D15801950104E010E00E942D030F
:1403C4000E9449030E945803A09068002090A6003324C090A5
:1403D800A500DD24C20CD31C2A2C3324C214D30464F420904C
:1403EC00A40033242601420C531C2A2C3324421453040CF0C8
:1404000076CF83C020906C0030906A00322809F09CC0A0903B
:14041400A6002A2C33240091A5001127020D131D2090A40080
:140428003324020D131D2A2C3324020D131D209068003324CF
:14043C0002191309E7D05801950101E010E00E942D03A090FC
:14045000A6002A2C33240091A5001127020D131D2090A40044
:140464003324020D131D2A2C3324020D131D20906800332493
:1404780002191309D3D05801950102E010E00E942D03A090D3
:14048C00A6002A2C33240091A5001127020D131D2090A40008
:1404A0003324020D131D2A2C3324020D131D20906800332457
:1404B40002191309ABD05801950103E010E00E942D03A090BE
:1404C800A6002A2C33240091A5001127020D131D2090A400CC
:1404DC003324020D131D2A2C3324020D131D2090680033241B
:1404F0000219130997D05801950104E010E00E942D030E9423
:140504004F030E945B03A0906800E090A6002E2C3324C090E2
:14051800A500DD24C20CD31C2090A4003324C20CD31C2A2CAE
:14052C003324C214D3045CF42E2C33242601420C531C2A2C7C
:140540003324421453040CF05DCF20906C002220B1F0222733
:1405540033270CE010E00E942D030E944F030E945B0304EFA4
:1405680011E00E947B030E9452030E945E0304EF11E00E94EE
:14057C007B0320906A00222009F441C08BB78F7D8BBF0E9459
:1405900049030E94550338C020906A00222009F434C0DC9858
:1405A400222733270CE010E00E942D0304EF11E00E947B03EE
:1405B800DC9821E030E00CE010E00E942D0328E030E001E003
:1405CC0010E00E942D0328E030E002E010E00E942D0328E095
:1405E00030E003E010E00E942D0328E030E004E010E00E94C4
:1405F4002D0320906A00222009F405C004EF11E00E947B03A1
:14060800C7CF9BCD21960895AA92A02E1AE00A2D0E94840625
:14061C000093A300A9900895AA92A02E1AE00A2D0E94820659
:140630000093A200A99008954A93AF9848E009C0AD9807FF4B
:1406440002C0AE9A01C0AE98000FAD9A4A954130A8F7499172
:140658000895AA92CA92A22EC02EAF980C2DE8DF0A2DE6DF58
:14066C00AF9AC990A99008952FEF09E0F0DF23E00AE0EDDF73
:1406800027E00BE0EADF21E00CE0E7DF21E00FE0E4CFD898E5
:14069400D9980895D89AD9980895D898D99A0895D89AD99A5F
:1406A8000895DA98DB980895DA9ADB980895DA98DB9A089517
:1406BC00DA9ADB9A0895000008950E94BC0658014427552763
:1406D00003C0F7DF4F5F5F4F4A155B05D0F30C94C106002711
:1406E400112702C00F5F1F4F0437E4E01E07D0F308950E9406
:1406F800BC0658014427552703C0EFDF4F5F5F4F4A155B0540
:14070C00D0F30C94C106BA98C29A08950A921A922A923A9294
:140720004A925A926A927A928A929A920A931A932A933A93D9
:140734008A939A93AA93BA93EA93FA930FB60A92AA924A9359
:1407480021978BB78F7D8BBF809168008F5F8093680040909B
:14075C00A6002090A500240C3090A400230C240C8215F8F01C
:14077000AA244CE022242092680082E0888321ED00ED0E9411
:14078400360400936300003050F085E0801738F081E0809329
:140798006C00222420926B0006C0222420926C0081E08093E0
:1407AC006B008BB780628BBF21964991A99009900FBEF991A6
:1407C000E991B991A9919991899139912991199109919990F2
:1407D4008990799069905990499039902990199009901895C3
:1407E8008FE080B9222421B808950E94B506A22EE02ECE8010
:1407FC0084EA86BF26B627FEFDCF81B1887F883011F001E096
:140810002BC0E3B884E886BF26B627FEFDCF81B1887F8831DE
:1408240011F001E01FC0C3B884E886BF26B627FEFDCF81B1D4
:14083800887F883211F001E013C0A3B884E886BF26B627FE29
:14084C00FDCF81B1887F883211F001E007C084E986BF0AE094
:1408600010E00E947B0300270C94AA06AA92A98084EA86BFE5
:1408740026B627FEFDCF03B984E886BF26B627FEFDCF81B137
:14088800887F883111F001E032C0A3B884E886BF26B627FEBB
:14089C00FDCF81B1887F883211F001E026C084EA86BF26B632
:1408B00027FEFDCF81B1887F803111F001E01BC023B984E854
:1408C40086BF26B627FEFDCF81B1887F803411F001E00FC070
:1408D80084E886BF26B627FEFDCF81B1887F883511F001E0B6
:1408EC0004C0A3B084E986BF0A2DA9900895AA92A98084EA4F
:1409000086BF26B627FEFDCF81B1887F883011F001E039C005
:1409140003B984E886BF26B627FEFDCF81B1887F883111F0A2
:1409280001E02DC0A3B884E886BF26B627FEFDCF81B1887FDB
:14093C00883211F001E021C084EA86BF26B627FEFDCF81B178
:14095000887F803111F001E016C023B984E886BF26B627FE95
:14096400FDCF81B1887F803411F001E00AC084E886BF26B68D
:1409780027FEFDCF81B1887F883509F001E0A99008954A93F7
:14098C005A9321974427552708C048839A01205D3F4F00EAA8
:1409A00028DF4F5F5F4F4430E0E05E07A0F3442755270AC003
:1409B400CA01049688839A012F5B3F4F00EA17DF4F5F5F4FD0
:1409C8004A31E0E05E0790F3442755270AC0CA014E9688838D
:1409DC009A012F593F4F00EA06DF4F5F5F4F4A31E0E05E078B
:1409F00090F348E350E006C0488320E300EAF9DE4F5F5F4F64
:140A04008FEF90E084179507A8F721965991499108958898E2
:140A1800909A899A919A86E880BD83E389B988E98AB90895AE
:140A2C000A921A922A923A924A925A926A927A928A929A92CE
:140A40000A931A932A933A938A939A93AA93BA93EA93FA93F0
:140A54000FB60A920E94BC0622975F9BFECF87EA90E0E091F7
:140A68006900FF27E80FF91F2CB02082809169008F5F8093E3
:140A7C00690085E090E09983888327EA30E00CE910E00E9459
:140A90006E060030010709F5F0D08AE090E098018C010E9446
:140AA4009A06C801805E9140A82EE5D0A801CA01C0972A2C7A
:140AB8003324280E391EA22CA092A50021E030E0022D112729
:140ACC000E945A0601E3CDD022242092690083E090E0998343
:140AE000888327EA30E008E910E00E946E065801003001074E
:140AF400F9F4C1D058010AE010E095010E949A06C801805EBE
:140B08009140A82EB6D0A801CA01C0972A2C3324280E391EA7
:140B1C00A22CA092A40022273327022D11270E945A062224CF
:140B30002092690086E090E09983888327EA30E001E910E09E
:140B44000E946E06580100300107F9F494D058010AE010E072
:140B580095010E949A06C801805E9140A82E89D0A801CA0196
:140B6C00C0972A2C3324280E391EA22CA092A60022E030E02C
:140B8000022D11270E945A062224209269008CE090E099839F
:140B9400888327EA30E004E810E00E946E065801003001079E
:140BA80041F481E080936A00222420926B0020926C008BE03A
:140BBC0090E09983888327EA30E008E710E00E946E0658011F
:140BD0000030010741F4222420926A0081E080936B002092B1
:140BE4006C008AE090E09983888327EA30E00DE610E00E94EA
:140BF8006E06580100300107E1F43BD058010AE010E095013B
:140C0C000E949A06C801805E9140A82E30D0A801CA01C09779
:140C20002A2C3324280E391EA22C82E08883222D00ED0E946D
:140C3400F9030A2D1AD022960E94C10609900FBEF991E99104
:140C4800B991A99199918991399129911991099199908990C6
:140C5C007990699059904990399029901990099018955D9B57
:140C7000FECF0CB95E9BFECF08955F9BFECF0CB108950E94B8
:140C8400BC06A801E09B04C000E210E00E947B03CA01807005
:140C980091708FBBCA0190708EBBE09A00E210E00E947B037D
:140CAC00ADB20A2D0C94C1060E94BC06A901A02ECA018070A0
:140CC00091708FBBCA0190708EBBADBAE29AE19A00E210E091
:140CD4000E947B030C94C106888199818030980761F0F12FA2
:140CE800E02FB32FA22F01911D91011B29F4112311F00197F0
:140CFC00C1F70027110B0895689401C0E8942A93FA92EA924E
:140D1000FF24EE2420E1000FFF1CEE1CE11610F0E11A0395DB
:140D24002A95B9F70EF40E2DE990F990299108950A921A926E
:140D38008A939A93029FC001129F900D039F900D8C019991B7
:140D4C008991199009900895A990B990C990D990E990F99054
:140D600008957A936A935A934A93FA92EA92DA92CA92BA92F2
:140D7400AA9208955A934A93BA92AA920895A990B990499147
:040D880059910895E0
:00000001FF
