:080000000C9454000C949400D0
:04002C000C947405B7
:040048000C94D5003F
:14005400000000000000000000000000010074696D6563681D
:14006800616E676500757267656E637973746F7000757267D8
:14007C00656E637973746172740079656C6C6F7700726564BC
:1400900000677265656E003F065B4F666D7D077F6FFF00FF19
:1400A40001020408CFE5D4E0CDBFDEBFCE51D0400AEA0883FA
:1400B8000024E4EBF0E010E0ED3CF10711F00192FBCF00837F
:1400CC00E4E5F0E0A0E6B0E010E000E00BBFE83AF10721F0AC
:1400E000C89531960D92F9CF0E949801FFCFD898D9980895FA
:1400F400D89AD9980895D898D99A0895D89AD99A0895DA9804
:14010800DB980895DA9ADB980895DA98DB9A0895DA9ADB9AE2
:14011C00089582E085BF80E48BBF08952A920A931A932FB656
:140130002A9220906000222019F401E010E002C000271127AE
:140144000093600029902FBE199109912990189500000895C7
:140158000E944D0758014427552703C0F7DF4F5F5F4F4A1509
:14016C005B05D0F30C9452070027112702C00F5F1F4F04372B
:14018000E4E01E07D0F308950E944D0758014427552703C029
:14019400EFDF4F5F5F4F4A155B05D0F30C945207BA98C29A04
:1401A80008950A921A922A923A924A925A926A927A928A92EA
:1401BC009A920A931A932A933A938A939A93AA93BA93EA93DE
:1401D000FA930FB60A92AA924A9321978BB78F7D8BBF8091B3
:1401E40068008F5F809368004090B8002090B700240C309057
:1401F800B600230C240C821538F1AA244CE0222420926800C4
:14020C0082E0888321ED00ED0E94940400936300003070F0B6
:1402200085E0801758F020906B00222039F481E080936D001B
:14023400222420926C000AC020906B00222031F4222420920E
:140248006D0081E080936C001AE0009168000E941307002383
:14025C0089F4442709C089EB90E0E42FFF27E80FF91F22246B
:14027000208243954431A8F301E010E00E94C4008BB7806295
:140284008BBF21964991A99009900FBEF991E991B991A99164
:14029800999189913991299119910991999089907990699002
:1402AC0059904990399029901990099018950E944D07A8016C
:1402C000E09B04C000E210E00E94C400CA01807091708FBBAD
:1402D400CA0190708EBBE09A00E210E00E94C400ADB20A2DBA
:1402E8000C9452070E944D07A901A02ECA01807091708FBB95
:1402FC00CA0190708EBBADBAE29AE19A00E210E00E94C40044
:140310000C9452078FEF8ABB22242BBA87BB88BB87EE84BBB9
:1403240025BA82E081BB84E082BB08952197F0DF0E9452048B
:1403380087E0888320E100ED0E9457040E94D2000E946905D0
:14034C000E94A60605E010E00E945D010093B60006E010E05B
:140360000E945D010093B70007E010E00E945D015801A092DD
:14037400B800789451C220906C00222009F401C2DC988BB7CA
:1403880080628BBF49C020906B00222021F420906D0022205B
:14039C0009F0A8C02090680033240091B700112702191309C6
:1403B00038D25801950101E010E00E94E10620906800332477
:1403C4000091B70011270219130933D25801950102E010E0A8
:1403D8000E94E1062090680033240091B70011270219130962
:1403EC001AD25801950103E010E00E94E10620906800332457
:140400000091B70011270219130915D25801950104E010E087
:140414000E94E1060E947A000E9483002090B700332440907C
:1404280068005524241435040CF0ADCF5DC020906B0022207C
:14043C0021F420906D00222009F0DEC02090B8003324009151
:14045000B7001127020D131D20906800332402191309DFD114
:140464005801950101E010E00E94E1062090B80033240091EB
:14047800B7001127020D131D20906800332402191309D5D1F6
:14048C005801950102E010E00E94E1062090B80033240091C2
:1404A000B7001127020D131D20906800332402191309B7D1EC
:1404B4005801950103E010E00E94E1062090B8003324009199
:1404C800B7001127020D131D20906800332402191309ADD1CE
:1404DC005801950104E010E00E94E1060E947D000E94890076
:1404F000A0906800C090B7002C2C33244A2C5524241435044A
:140504006CF42090B80033244C2C5524420C531C2A2C332469
:14051800421453040CF08BCF71C020906B00222021F4209079
:14052C006D00222009F009C12090B80033240091B70011270A
:14054000020D131D2090B6003324020D131D209068003324FD
:140554000219130964D15801950101E010E00E94E10620902E
:14056800B80033240091B7001127020D131D2090B6003324F4
:14057C00020D131D2090680033240219130955D15801950171
:1405900002E010E00E94E1062090B80033240091B7001127BD
:1405A400020D131D2090B6003324020D131D20906800332499
:1405B8000219130932D15801950103E010E00E94E1062090FA
:1405CC00B80033240091B7001127020D131D2090B600332490
:1405E000020D131D2090680033240219130923D1580195013F
:1405F40004E010E00E94E1060E9477000E948600A0906800BD
:140608002090B8003324C090B700DD24C20CD31C2A2C3324AD
:14061C00C214D30464F42090B60033242601420C531C2A2CCE
:140630003324421453040CF074CF85C020906B00222021F4BC
:1406440020906D00222009F09CC0A090B8002A2C33240091C8
:14065800B7001127020D131D2090B6003324020D131D2A2C0E
:14066C003324020D131D20906800332402191309D2D0580143
:14068000950101E010E00E94E106A090B8002A2C3324009150
:14069400B7001127020D131D2090B6003324020D131D2A2CD2
:1406A8003324020D131D20906800332402191309BED058011B
:1406BC00950102E010E00E94E106A090B8002A2C3324009113
:1406D000B7001127020D131D2090B6003324020D131D2A2C96
:1406E4003324020D131D2090680033240219130996D0580107
:1406F800950103E010E00E94E106A090B8002A2C33240091D6
:14070C00B7001127020D131D2090B6003324020D131D2A2C59
:140720003324020D131D2090680033240219130982D05801DE
:14073400950104E010E00E94E1060E947D000E948900A09044
:140748006800E090B8002E2C3324C090B700DD24C20CD31C97
:14075C002090B6003324C20CD31C2A2C3324C214D3045CF465
:140770002E2C33242601420C531C2A2C3324421453040CF08A
:140784005BCF20906D002220E1F022273327002711270E9463
:14079800CD0621E030E0002711270E94CD060E947D000E94D4
:1407AC00890004EF11E00E94C4000E9480000E948C0004EF23
:1407C00011E00E94C40020906B00222031F10E9477000E9494
:1407D400830020C020906B00222009F41CC0DC982AE030E0EA
:1407E800002711270E94E10604EF11E00E94C400DC982BE04C
:1407FC0030E0002711270E94E10620906B00222009F405C0D2
:1408100004EF11E00E94C400DFCF00C0AECD21960895AA9211
:14082400A02E1AE00A2D0E9415070093B500A9900895AA92A9
:14083800A02E1AE00A2D0E9413070093B400A99008954A93F7
:14084C00AF9848E009C0AD9807FF02C0AE9A01C0AE98000FF5
:14086000AD9A4A954130A8F749910895AA92CA92A22EC02E81
:14087400AF980C2DE8DF0A2DE6DFAF9AC990A99008952FEF97
:1408880009E0F0DF23E00AE0EDDF27E00BE0EADF21E00CE043
:14089C00E7DF21E00FE0E4CF8FE080B9222421B808950E94D9
:1408B0004607A22EE02ECE8084EA86BF26B627FEFDCF81B109
:1408C400887F883011F001E02BC0E3B884E886BF26B627FE47
:1408D800FDCF81B1887F883111F001E01FC0C3B884E886BF61
:1408EC0026B627FEFDCF81B1887F883211F001E013C0A3B828
:1409000084E886BF26B627FEFDCF81B1887F883211F001E090
:1409140007C084E986BF0AE010E00E94C40000270C943B070D
:14092800AA92A98084EA86BF26B627FEFDCF03B984E886BF69
:14093C0026B627FEFDCF81B1887F883111F001E032C0A3B8B9
:1409500084E886BF26B627FEFDCF81B1887F883211F001E040
:1409640026C084EA86BF26B627FEFDCF81B1887F803111F02E
:1409780001E01BC023B984E886BF26B627FEFDCF81B1887F1C
:14098C00803411F001E00FC084E886BF26B627FEFDCF81B142
:1409A000887F883511F001E004C0A3B084E986BF0A2DA99064
:1409B4000895AA92A98084EA86BF26B627FEFDCF81B1887F74
:1409C800883011F001E039C003B984E886BF26B627FEFDCF4E
:1409DC0081B1887F883111F001E02DC0A3B884E886BF26B65E
:1409F00027FEFDCF81B1887F883211F001E021C084EA86BF99
:140A040026B627FEFDCF81B1887F803111F001E016C023B993
:140A180084E886BF26B627FEFDCF81B1887F803411F001E07D
:140A2C000AC084E886BF26B627FEFDCF81B1887F883509F07F
:140A400001E0A99008954A935A9321974427552708C04883EF
:140A54009A01205D3F4F00EA28DF4F5F5F4F4430E0E05E0702
:140A6800A0F3442755270AC0CA01049688839A012F5B3F4F13
:140A7C0000EA17DF4F5F5F4F4A31E0E05E0790F34427552720
:140A90000AC0CA014E9688839A012F593F4F00EA06DF4F5FA0
:140AA4005F4F4A31E0E05E0790F348E350E006C0488320E37E
:140AB80000EAF9DE4F5F5F4F8FEF90E084179507A8F7219692
:140ACC005991499108958898909A899A919A86E880BD83E30C
:140AE00089B988E98AB908950A921A922A923A924A925A92D7
:140AF4006A927A928A929A920A931A932A933A938A939A9380
:140B0800AA93BA93EA93FA930FB60A920E944D0722975F9B3B
:140B1C00FECF89EB90E0E0916A00FF27E80FF91F2CB0208286
:140B300080916A008F5F80936A0085E090E09983888329EBBB
:140B440030E00DE910E00E94FF060030010709F5F7D08AE099
:140B580090E098018C010E942B07C801805E9140A82EECD015
:140B6C00A801CA01C0972A2C3324280E391EA22CA092B700B9
:140B800026E030E0022D11270E94760101E3D4D0222420924B
:140B94006A0083E090E09983888329EB30E009E910E00E9441
:140BA800FF06580100300107F9F4C8D058010AE010E0950155
:140BBC000E942B07C801805E9140A82EBDD0A801CA01C097AB
:140BD0002A2C3324280E391EA22CA092B60025E030E0022DDD
:140BE40011270E947601222420926A0086E090E0998388834D
:140BF80029EB30E002E910E00E94FF06580100300107F9F4C5
:140C0C009BD058010AE010E095010E942B07C801805E914054
:140C2000A82E90D0A801CA01C0972A2C3324280E391EA22CB7
:140C3400A092B80027E030E0022D11270E9476012224209233
:140C48006A008CE090E09983888329EB30E005E810E00E9488
:140C5C00FF0658010030010751F481E080936B0022242092D2
:140C70006C0020926D0020926A008BE090E09983888329EBB3
:140C840030E009E710E00E94FF0658010030010761F4222499
:140C980020926B0081E080936C0020926D0020926800209260
:140CAC006A008AE090E09983888329EB30E00EE610E00E941F
:140CC000FF06580100300107E9F43CD058010AE010E09501D8
:140CD4000E942B07C801805E9140A82E31D0A801CA01C0971E
:140CE8002A2C3324280E391EA22C82E08883222D00ED0E94A5
:140CFC005704222420926A0022960E94520709900FBEF99184
:140D1000E991B991A99199918991399129911991099199909C
:140D240089907990699059904990399029901990099018956D
:140D38005D9BFECF0CB95E9BFECF08955F9BFECF0CB1089599
:140D4C0084B3846E84BB85B3846E85BB08954A93442709C013
:140D6000AD9807FF02C0AF9A01C0AF98AD9A000F439548307B
:140D7400A8F3499108954A93442709C0AA9807FF02C0AF9AF5
:140D880001C0AF98AA9A000F43954830A8F349910895AA925E
:140D9C00CA92C22EA02ECC2031F0AA98AE980A2DE6DFAE9A50
:140DB00005C0AD98AE980A2DD0DFAE9AC990A9900895AA9246
:140DC400CA92A22EC02E21E08FEA90E0EC2DFF27E80FF91FC9
:140DD80000810095DEDF222783EA90E0EA2DFF27E80FF91FC2
:140DEC000081D5DF05E010E00E94C400C990A990089588814B
:140E000099818030980761F0F12FE02FB32FA22F01911D9102
:140E1400011B29F4112311F00197C1F70027110B0895689430
:140E280001C0E8942A93FA92EA92FF24EE2420E1000FFF1C54
:140E3C00EE1CE11610F0E11A03952A95B9F70EF40E2DE990E9
:140E5000F990299108950A921A928A939A93029FC001129F09
:140E6400900D039F900D8C0199918991199009900895A990B5
:140E7800B990C990D990E990F99008957A936A935A934A93E8
:140E8C00FA92EA92DA92CA92BA92AA9208955A934A93BA9247
:0E0EA000AA920895A990B99049915991089588
:00000001FF
