:080000000C9455000C949500CE
:04002C000C94A90582
:040048000C94D6003E
:1400540000000000000000000000000000010074696D656385
:1400680068616E676500757267656E637973746F70007572D7
:14007C0067656E637973746172740079656C6C6F77007265B9
:140090006400677265656E003F065B4F666D7D077F6FFF00B4
:0500A400FF0102040849
:1400AA00CFE5D4E0CDBFDEBFCE51D0400AEA08830024E5EB0F
:1400BE00F0E010E0EE3CF10711F00192FBCF0083E4E5F0E0D2
:1400D200A0E6B0E010E000E00BBFE93AF10721F0C89531961A
:1400E6000D92F9CF0E949901FFCFD898D9980895D89AD99834
:1400FA000895D898D99A0895D89AD99A0895DA98DB980895D1
:14010E00DA9ADB980895DA98DB9A0895DA9ADB9A089582E0ED
:1401220085BF80E48BBF08952A920A931A932FB62A922090E3
:140136006000222019F401E010E002C0002711270093600021
:14014A0029902FBE1991099129901895000008950E94820789
:14015E0058014427552703C0F7DF4F5F5F4F4A155B05D0F3D6
:140172000C9487070027112702C00F5F1F4F0437E4E01E072A
:14018600D0F308950E94820758014427552703C0EFDF4F5F5B
:14019A005F4F4A155B05D0F30C948707BA98C29A08950A920C
:1401AE001A922A923A924A925A926A927A928A929A920A9354
:1401C2001A932A933A938A939A93AA93BA93EA93FA930FB64F
:1401D6000A92AA924A9321978BB78F7D8BBF809168008F5FA9
:1401EA00809368004090B9002090B800240C3090B700230CBF
:1401FE00240C821538F1AA244CE022242092680082E0888336
:1402120021ED00ED0E94C90400936300003070F085E08017EC
:1402260058F020906C00222039F481E080936E002224209217
:14023A006D000AC020906C00222031F4222420926E0081E02F
:14024E0080936D0014E0009168000E944807002389F4442733
:1402620009C08AEB90E0E42FFF27E80FF91F222420824395D2
:140276004431A8F301E010E00E94C5008BB780628BBF219607
:14028A004991A99009900FBEF991E991B991A991999189911B
:14029E0039912991199109919990899079906990599049907E
:1402B200399029901990099018950E948207A801E09B04C0B4
:1402C60000E210E00E94C500CA01807091708FBBCA0190701A
:1402DA008EBBE09A00E210E00E94C500ADB20A2D0C94870750
:1402EE000E948207A901A02ECA01807091708FBBCA01907088
:140302008EBBADBAE29AE19A00E210E00E94C5000C948707D9
:140316008FEF8ABB22242BBA87BB88BB87EE84BB25BA82E06B
:14032A0081BB84E082BB08952197F0DF0E94870487E088831F
:14033E0020E100ED0E948C040E94D3000E949E050E94DB064E
:1403520005E010E00E945E010093B70006E010E00E945E01A0
:140366000093B80007E010E00E945E015801A092B900789410
:14037A0085C220906D00222009F435C2DC988BB780628BBFF3
:14038E0053C020906C00222021F420906E00222009F0C3C0F9
:1403A2002090B90033240091B8001127020D131D20906800AF
:1403B60033240219130967D25801950101E010E00E941607ED
:1403CA002090B90033240091B8001127020D131D2090680087
:1403DE003324021913095DD25801950102E010E00E941607CE
:1403F2002090680033240091B80011270219130944D2580161
:14040600950103E010E00E9416072090680033240091B80002
:14041A001127021913093FD25801950104E010E00E941607CC
:14042E000E947B000E9484002090B800332440906800552407
:14044200241435040CF0A3CF6EC020906C00222021F4209076
:140456006E00222009F0F7C02090B90033240091B8001127F1
:14046A00020D131D2090680033240219130909D258019501CF
:14047E0001E010E00E9416072090B90033240091B800112799
:14049200020D131D20906800332402191309FFD158019501B2
:1404A60002E010E00E9416072090B90033240091B800112770
:1404BA00020D131D20906800332402191309E1D158019501A8
:1404CE0003E010E00E9416072090B90033240091B800112747
:1404E200020D131D20906800332402191309D7D1580195018A
:1404F60004E010E00E94160780916A008F5F80936A008931BF
:14050A0019F40E947E0009C080916A00823329F40E94810077
:14051E00222420926A000E948400A0906800C090B8002C2C49
:1405320033244A2C5524241435046CF42090B90033244C2C66
:140546005524420C531C2A2C3324421453040CF07ACF79C093
:14055A0020906C00222021F420906E00222009F022C120902E
:14056E00B90033240091B8001127020D131D2090B7003324EB
:14058200020D131D209068003324021913097DD15801950143
:1405960001E010E00E9416072090B90033240091B800112780
:1405AA00020D131D2090B7003324020D131D20906800332492
:1405BE00021913096ED15801950102E010E00E941607A09003
:1405D200B9002A2C33240091B8001127020D131D3324020D89
:1405E600131D2090B7003324020D131D20906800332402194A
:1405FA00130947D15801950103E010E00E941607A090B9004F
:14060E002A2C33240091B8001127020D131D3324020D131DD5
:140622002090B7003324020D131D2090680033240219130921
:1406360034D15801950104E010E00E9416070E9478000E946D
:14064A008700A09068002090B9003324C090B800DD24C20CE6
:14065E00D31C2A2C3324C214D30464F42090B7003324260102
:14067200420C531C2A2C3324421453040CF06CCF96C0209020
:140686006C00222021F420906E00222009F0ADC0A090B900EE
:14069A002A2C33240091B8001127020D131D2090B700332421
:1406AE00020D131D2A2C3324020D131D209068003324021983
:1406C2001309E3D05801950101E010E00E941607A090B900ED
:1406D6002A2C33240091B8001127020D131D2090B7003324E5
:1406EA00020D131D2A2C3324020D131D209068003324021947
:1406FE001309CFD05801950102E010E00E941607A090B900C4
:140712002A2C33240091B8001127020D131D2090B7003324A8
:14072600020D131D2A2C3324020D131D20906800332402190A
:14073A001309A7D05801950103E010E00E941607A090B900AE
:14074E002A2C33240091B8001127020D131D2090B70033246C
:14076200020D131D2A2C3324020D131D2090680033240219CE
:14077600130993D05801950104E010E00E94160780916A00F3
:14078A008F5F80936A00893119F40E948A0009C080916A00B9
:14079E00823329F40E948D00222420926A000E947800A0909A
:1407B2006800E090B9002E2C3324C090B800DD24C20CD31C2B
:1407C6002090B7003324C20CD31C2A2C3324C214D3045CF4FA
:1407DA002E2C33242601420C531C2A2C3324421453040CF020
:1407EE004ACF20906E002220E1F022273327002711270E9409
:14080200020721E030E0002711270E9402070E947E000E94FC
:140816008A0004EF11E00E94C5000E9481000E948D0004EFB4
:14082A0011E00E94C50020906C00222031F10E9478000E9426
:14083E00840020C020906C00222009F41CC0DC982AE030E07D
:14085200002711270E94160704EF11E00E94C500DC982BE0AA
:1408660030E0002711270E94160720906C00222009F405C030
:14087A0004EF11E00E94C500DFCF00C07ACD21960895AA92DA
:14088E00A02E1AE00A2D0E944A070093B600A9900895AA9209
:1408A200A02E1AE00A2D0E9448070093B500A99008954A9357
:1408B600AF9848E009C0AD9807FF02C0AE9A01C0AE98000F8B
:1408CA00AD9A4A954130A8F749910895AA92CA92A22EC02E17
:1408DE00AF980C2DE8DF0A2DE6DFAF9AC990A99008952FEF2D
:1408F20009E0F0DF23E00AE0EDDF27E00BE0EADF21E00CE0D9
:14090600E7DF21E00FE0E4CF8FE080B9222421B808950E946E
:14091A007B07A22EE02ECE8084EA86BF26B627FEFDCF81B169
:14092E00887F883011F001E02BC0E3B884E886BF26B627FEDC
:14094200FDCF81B1887F883111F001E01FC0C3B884E886BFF6
:1409560026B627FEFDCF81B1887F883211F001E013C0A3B8BD
:14096A0084E886BF26B627FEFDCF81B1887F883211F001E026
:14097E0007C084E986BF0AE010E00E94C50000270C9470076D
:14099200AA92A98084EA86BF26B627FEFDCF03B984E886BFFF
:1409A60026B627FEFDCF81B1887F883111F001E032C0A3B84F
:1409BA0084E886BF26B627FEFDCF81B1887F883211F001E0D6
:1409CE0026C084EA86BF26B627FEFDCF81B1887F803111F0C4
:1409E20001E01BC023B984E886BF26B627FEFDCF81B1887FB2
:1409F600803411F001E00FC084E886BF26B627FEFDCF81B1D8
:140A0A00887F883511F001E004C0A3B084E986BF0A2DA990F9
:140A1E000895AA92A98084EA86BF26B627FEFDCF81B1887F09
:140A3200883011F001E039C003B984E886BF26B627FEFDCFE3
:140A460081B1887F883111F001E02DC0A3B884E886BF26B6F3
:140A5A0027FEFDCF81B1887F883211F001E021C084EA86BF2E
:140A6E0026B627FEFDCF81B1887F803111F001E016C023B929
:140A820084E886BF26B627FEFDCF81B1887F803411F001E013
:140A96000AC084E886BF26B627FEFDCF81B1887F883509F015
:140AAA0001E0A99008954A935A9321974427552708C0488385
:140ABE009A01205D3F4F00EA28DF4F5F5F4F4430E0E05E0798
:140AD200A0F3442755270AC0CA01049688839A012F5B3F4FA9
:140AE60000EA17DF4F5F5F4F4A31E0E05E0790F344275527B6
:140AFA000AC0CA014E9688839A012F593F4F00EA06DF4F5F36
:140B0E005F4F4A31E0E05E0790F348E350E006C0488320E313
:140B220000EAF9DE4F5F5F4F8FEF90E084179507A8F7219627
:140B36005991499108958898909A899A919A86E880BD83E3A1
:140B4A0089B988E98AB908950A921A922A923A924A925A926C
:140B5E006A927A928A929A920A931A932A933A938A939A9315
:140B7200AA93BA93EA93FA930FB60A920E94820722975F9B9C
:140B8600FECF8AEB90E0E0916B00FF27E80FF91F2CB020821A
:140B9A0080916B008F5F80936B0085E090E0998388832AEB4E
:140BAE0030E00EE910E00E9434070030010709F5F7D08AE0F8
:140BC20090E098018C010E946007C801805E9140A82EECD076
:140BD600A801CA01C0972A2C3324280E391EA22CA092B8004E
:140BEA0026E030E0022D11270E94770101E3D4D022242092E0
:140BFE006B0083E090E0998388832AEB30E00AE910E00E94D4
:140C12003407580100300107F9F4C8D058010AE010E09501B4
:140C26000E946007C801805E9140A82EBDD0A801CA01C0970B
:140C3A002A2C3324280E391EA22CA092B70025E030E0022D71
:140C4E0011270E947701222420926B0086E090E099838883E0
:140C62002AEB30E003E910E00E943407580100300107F9F422
:140C76009BD058010AE010E095010E946007C801805E9140B5
:140C8A00A82E90D0A801CA01C0972A2C3324280E391EA22C4D
:140C9E00A092B90027E030E0022D11270E94770122242092C7
:140CB2006B008CE090E0998388832AEB30E006E810E00E941B
:140CC600340758010030010751F481E080936C002224209231
:140CDA006D0020926E0020926B008BE090E0998388832AEB45
:140CEE0030E00AE710E00E94340758010030010761F42224F8
:140D020020926C0081E080936D0020926E00209268002092F2
:140D16006B008AE090E0998388832AEB30E00FE610E00E94B1
:140D2A003407580100300107E9F43CD058010AE010E0950137
:140D3E000E946007C801805E9140A82E31D0A801CA01C0977E
:140D52002A2C3324280E391EA22C82E08883222D00ED0E943A
:140D66008C04222420926B0022960E94870709900FBEF991AE
:140D7A00E991B991A991999189913991299119910991999032
:140D8E00899079906990599049903990299019900990189503
:140DA2005D9BFECF0CB95E9BFECF08955F9BFECF0CB108952F
:140DB60084B3846E84BB85B3846E85BB08954A93442709C0A9
:140DCA00AD9807FF02C0AF9A01C0AF98AD9A000F4395483011
:140DDE00A8F3499108954A93442709C0AA9807FF02C0AF9A8B
:140DF20001C0AF98AA9A000F43954830A8F349910895AA92F4
:140E0600CA92C22EA02ECC2031F0AA98AE980A2DE6DFAE9AE5
:140E1A0005C0AD98AE980A2DD0DFAE9AC990A9900895AA92DB
:140E2E00CA92A22EC02E21E080EB90E0EC2DFF27E80FF91F6C
:140E420000810095DEDF222784EA90E0EA2DFF27E80FF91F56
:140E56000081D5DF05E010E00E94C500C990A99008958881DF
:140E6A0099818030980761F0F12FE02FB32FA22F01911D9198
:140E7E00011B29F4112311F00197C1F70027110B08956894C6
:140E920001C0E8942A93FA92EA92FF24EE2420E1000FFF1CEA
:140EA600EE1CE11610F0E11A03952A95B9F70EF40E2DE9907F
:140EBA00F990299108950A921A928A939A93029FC001129F9F
:140ECE00900D039F900D8C0199918991199009900895A9904B
:140EE200B990C990D990E990F99008957A936A935A934A937E
:140EF600FA92EA92DA92CA92BA92AA9208955A934A93BA92DD
:0E0F0A00AA920895A990B9904991599108951D
:00000001FF
